:100000000C9434000C9453000C9468000C94510030
:100010000C9472020C9451000C9451000C945100F9
:100020000C9451000C94BC020C9451000C9451009F
:100030000C9451000C9451000C94A1020C945100AA
:100040000C9451000C9451000C9451000C945100EC
:100050000C9451000C9451000C9451000C945100DC
:100060000C9451000C94510011241FBECFEFD8E026
:10007000DEBFCDBF12E0A0E0B1E0E4EBF2E102C0F0
:1000800005900D92AA32B107D9F712E0AAE2B2E0C8
:1000900001C01D92AE32B107E1F70E94A0000C949E
:1000A00058090C9400001F920F920FB60F92112462
:1000B0008F939F93F89481E090E090932B0280932C
:1000C0002A029F918F910F900FBE0F901F9018954D
:1000D0001F920F920FB60F9211248F939F93F89453
:1000E00082E090E090932B0280932A029F918F915F
:1000F0000F900FBE0F901F9018958AB1837F8AB919
:100100008BB18C608BB9E9E6F0E080818A608083F6
:100110008DB383608DBB80E090E008958D52914057
:1001200010F0289A01C0289880E090E0089585B7E3
:10013000806485BF83B7846083BF80E090E00895CA
:100140000F931F93209A609100017091010180919B
:1001500002010E94FE0060910301709104018091F0
:1001600005010E94FE000E947D0085B7806485BF66
:1001700083B7846083BF789483B7816083BF8091A5
:1001800064008F6E809364000E94CD0280912A02E9
:1001900090912B0281309105A9F411C0609100016A
:1001A00070910101809102010E9430028C010E9435
:1001B000E6020D52114010F0289A01C028984A9B7F
:1001C000EDCF16C00297C1F411C060910301709188
:1001D0000401809105010E9430028C010E94E60218
:1001E0000D52114010F0289A01C028984B9BEDCF7A
:1001F00010922B0210922A022898BDCFDF93CF9342
:1002000000D00F92CDB7DEB7262F69837A838B8318
:10021000472F382F3F70582F52955F70872F825489
:10022000833008F062C062340CF45FC065340CF0B7
:100230005CC0733411F0633419F4373020F058C0C7
:10024000383008F055C0233479F02434C1F022341A
:1002500001F524B181E090E002C0880F991F3A9522
:10026000E2F7282B24B915C027B181E090E002C045
:10027000880F991F3A95E2F7282B27B90AC02AB1AF
:1002800081E090E002C0880F991F3A95E2F7282B91
:100290002AB9433481F04434D1F0423419F524B101
:1002A00081E090E002C0880F991F5A95E2F780958F
:1002B000822384B917C027B181E090E002C0880F83
:1002C000991F5A95E2F78095822387B90BC02AB10E
:1002D00081E090E002C0880F991F5A95E2F780955F
:1002E00082238AB920E030E005C021E030E002C07E
:1002F00022E030E0C9010F900F900F90CF91DF9175
:100300000895DF93CF9300D00F92CDB7DEB7698306
:100310007A838B83382F32953F70723421F4809129
:10032000680081600BC0733421F4809168008260A2
:1003300005C0743489F480916800846080936800FB
:1003400020916C0081E090E002C0880F991F3A95DF
:10035000E2F7282B20936C001092B20010927000EC
:1003600081E08093700080E090E00F900F900F90FC
:10037000CF91DF91089580912C0220912D029FEF63
:10038000299F90011124280F311DC901089516BC21
:100390008FE987BDEEE6F0E0108280818260808385
:1003A00085B5816085BD80E090E008951F93DF935F
:1003B000CF9300D00F92CDB7DEB769837A838B835A
:1003C000382F3F706334D1F0643469F1623409F03E
:1003D0003EC025B181E090E002C0880F991F3A9598
:1003E000E2F7182F282B25B90E94C70105B400FC9D
:1003F000FDCF85B11095182315B929C028B181E02A
:1004000090E002C0880F991F3A95E2F7182F282B29
:1004100028B90E94C70105B400FCFDCF88B1109532
:10042000182318B914C02BB181E090E002C0880FE6
:10043000991F3A95E2F7182F282B2BB90E94C70174
:1004400005B400FCFDCF8BB1109518231BB980E0DB
:1004500090E00F900F900F90CF91DF911F91089532
:10046000DF93CF9300D00F92CDB7DEB769837A8345
:100470008B8310922D0221E030E03093070120930E
:1004800006010E948101789469817A818B810E94A2
:10049000D60180910601909107010397D1F7309121
:1004A0002C0260912D022FEF629FB0011124630F87
:1004B000711D80E090E00E946E0624E237E94FE76C
:1004C0005CE30E943E0520E030E048E652E40E94F2
:1004D0003E050E946803CB010F900F900F90CF91C3
:1004E000DF9108951F920F920FB60F9211248F93F0
:1004F0009F93F8948091060190910701892B51F008
:100500008091B10087608093B10010920701109232
:1005100006010FC08091B20080932C028091B1003F
:10052000887F8093B10083E090E0909307018093EF
:10053000060178949F918F910F900FBE0F901F909E
:1005400018951F920F920FB60F9211248F93EF936D
:10055000FF9385B58E7F85BD16BC17BCEEE6F0E037
:10056000108280818D7F8083FF91EF918F910F901A
:100570000FBE0F901F9018951F920F920FB60F92FB
:1005800011248F9380912D028F5F80932D028F9184
:100590000F900FBE0F901F9018951092C50087E620
:1005A0008093C40088E08093C10086E08093C200FD
:1005B0000895FC0107C08091C00085FFFCCF909397
:1005C000C600319690819923B1F708950F931F9338
:1005D000DF93CF9300D000D00F92CDB7DEB78C0160
:1005E00088E091E00E94D902C8018E010F5F1F4F81
:1005F000B8014AE050E00E941309C8010E94D902E4
:1006000081E191E00E94D90280E090E00F900F908C
:100610000F900F900F90CF91DF911F910F91089540
:10062000DF92EF92FF920F931F93DF93CF93CDB79B
:10063000DEB72F970FB6F894DEBF0FBECDBF7C019B
:10064000162FD42E83E191E00E94D902812F90E0F1
:100650008E010F5F1F4FB8014AE050E00E9413095E
:10066000C8010E94D90289E191E00E94D9028E015D
:100670000A5F1F4F8D2D90E0B8014AE050E00E94C4
:100680001309C8010E94D90288E091E00E94D902B2
:100690008E01055F1F4FC701B8014AE050E00E947C
:1006A0001309C8010E94D90281E191E00E94D90298
:1006B00080E090E02F960FB6F894DEBF0FBECDBF5E
:1006C000CF91DF911F910F91FF90EF90DF900895F0
:1006D000EF92FF920F931F937B018C0120E030E09B
:1006E00040E05FE40E94EA0588238CF0C801B7016E
:1006F00020E030E040E05FE40E94E0040E941A063F
:100700009B01AC01205030404040504806C0C80119
:10071000B7010E941A069B01AC01B901CA011F91E1
:100720000F91FF90EF900895A0E0B0E0EAE9F3E0C8
:100730000C94DC08DC012B01FA019C91923008F446
:1007400039C1EB018881823008F433C1943069F4F7
:10075000843009F02FC111969C91119789819817C7
:1007600009F428C1A2E2B1E025C1843009F421C115
:100770008230A9F4923009F01DC19A01AD0188E0E0
:10078000EA010990AE01E90109929E018150C1F789
:10079000E201898111969C918923818308C192305D
:1007A00009F407C112962D903C901397EB018A81B2
:1007B0009B811496AD90BD90CD90DC901797EC8006
:1007C000FD800E811F819101281B390BB90137FF74
:1007D00004C066277727621B730B603271050CF02B
:1007E00061C0121613066CF537014801062E04C0CD
:1007F00096948794779467940A94D2F721E030E036
:1008000040E050E004C0220F331F441F551F6A957B
:10081000D2F721503040404050402E213F2140230C
:100820005123211531054105510521F021E030E02A
:1008300040E050E079018A01E628F72808291929C3
:100840003CC0232BD1F1260E371E35014601062E62
:1008500004C096948794779467940A94D2F721E021
:1008600030E040E050E004C0220F331F441F551F0A
:100870006A95D2F721503040404050402A213B2118
:100880004C215D21211531054105510521F021E063
:1008900030E040E050E059016A01A628B728C82896
:1008A000D9280BC0821593052CF01C01AA24BB2467
:1008B000650103C0EE24FF24870111969C91D201AB
:1008C00011968C91981709F445C0992339F0A80125
:1008D00097012A193B094C095D0906C0A60195013B
:1008E0002E193F09400B510B57FD08C0118233826E
:1008F000228224833583468357831DC081E0818310
:100900003382228288279927DC01821B930BA40B58
:10091000B50B84839583A683B7830DC0220F331F45
:10092000441F551F248335834683578382819381D7
:100930000197938382832481358146815781DA012F
:10094000C9010197A109B1098F5F9F4FAF4FBF4305
:1009500028F30BC0918333822282EA0CFB1C0C1D0E
:100960001D1DE482F5820683178383E08083248142
:1009700035814681578157FF1AC0C901AA2797FDC3
:10098000A095BA2F81709070A070B0705695479561
:1009900037952795822B932BA42BB52B8483958396
:1009A000A683B78382819381019693838283DF013B
:1009B00001C0D201CD01CDB7DEB7E2E10C94F80859
:1009C000A0E2B0E0E6EEF4E00C94E80869837A83F4
:1009D0008B839C832D833E834F835887E9E0EE2EE3
:1009E000F12CEC0EFD1ECE010196B7010E940B0802
:1009F0008E010F5E1F4FCE010596B8010E940B08B5
:100A00008A8991E089278A8BC701B801AE01475EC8
:100A10005F4F0E9494030E943607A096E6E00C9474
:100A20000409A0E2B0E0E7E1F5E00C94E80869838E
:100A30007A838B839C832D833E834F835887F9E091
:100A4000EF2EF12CEC0EFD1ECE010196B7010E9497
:100A50000B088E010F5E1F4FCE010596B8010E9454
:100A60000B08C701B801AE01475E5F4F0E949403B7
:100A70000E943607A096E6E00C940409A8E1B0E0D5
:100A8000E4E4F5E00C94E40869837A838B839C8327
:100A90002D833E834F835887B9E0EB2EF12CEC0E6B
:100AA000FD1ECE010196B7010E940B088E010F5E5C
:100AB0001F4FCE010596B8010E940B0829852230F0
:100AC00008F47EC03989323010F4B8017CC08A85C0
:100AD0009A8989278A87243011F0223031F423172C
:100AE00009F06EC062E271E06EC0343039F41D86E8
:100AF0001E861F86188A1C861B8604C0323021F48D
:100B000084E08987B7015FC02B853C858B899C89F0
:100B1000281B390B3C872B87ED84FE840F851889B1
:100B2000AD88BE88CF88D88CEA14FB040C051D055F
:100B300040F4EE0CFF1C001F111F215030403C8779
:100B40002B8720E030E040E050E080E090E0A0E043
:100B5000B0E460E070E0EA14FB040C051D0540F011
:100B6000282B392B4A2B5B2BEA18FB080C091D0993
:100B7000B695A79597958795EE0CFF1C001F111F42
:100B80006F5F7F4F6F31710531F7DA01C9018F77E0
:100B90009070A070B07080349105A105B10561F42A
:100BA00027FD0AC0E114F1040105110529F0205CBC
:100BB0003F4F4F4F5F4F20782D873E874F87588B91
:100BC000BE01675F7F4FCB010E9436076896EAE05F
:100BD0000C940009A8E1B0E0E0EFF5E00C94E8081F
:100BE00069837A838B839C832D833E834F835887CD
:100BF00089E0E82EF12CEC0EFD1ECE010196B70126
:100C00000E940B088E010F5E1F4FCE010596B801A2
:100C10000E940B088985823040F08989823028F053
:100C2000C701B8010E94830801C08FEF6896E6E013
:100C30000C940409ACE0B0E0E0E2F6E00C94EC08BF
:100C400069837A838B839C83CE010196BE016B5F9F
:100C50007F4F0E940B088D81823061F1823050F10C
:100C6000843021F48E81882351F12EC02F81388564
:100C700037FD20C06E812F3131051CF06623F9F05D
:100C800023C08EE190E0821B930B29853A854B852A
:100C90005C8504C056954795379527958A95D2F778
:100CA0006623B1F050954095309521953F4F4F4FB9
:100CB0005F4F0EC020E030E040E050E009C02FEF71
:100CC0003FEF4FEF5FE704C020E030E040E050E846
:100CD000B901CA012C96E2E00C940809A8E0B0E042
:100CE000E4E7F6E00C94E4087B018C0161157105E2
:100CF0008105910519F482E0898360C083E08983CE
:100D00008EE1C82ED12CDC82CB82ED82FE820F8355
:100D10001887C801B7010E94E706FC013197F7FF69
:100D20003BC0222733272E1B3F0B57016801022EA1
:100D300004C0D694C794B794A7940A94D2F740E01D
:100D400050E060E070E081E090E0A0E0B0E004C03E
:100D5000880F991FAA1FBB1F2A95D2F70197A109D7
:100D6000B1098E219F21A023B1230097A105B105D0
:100D700021F041E050E060E070E04A295B296C29F5
:100D80007D294D835E836F8378878EE190E08E1B93
:100D90009F0B9C838B8312C0309781F00E2E04C072
:100DA000EE0CFF1C001F111F0A94D2F7ED82FE8289
:100DB0000F831887CE1ADF0ADC82CB821A82CE011B
:100DC00001960E9436072896EAE00C940009EF92FB
:100DD000FF920F931F937B018C0180E0E81680E067
:100DE000F80681E0080780E0180788F48FEFE8161E
:100DF000F1040105110531F028F088E090E0A0E051
:100E0000B0E017C080E090E0A0E0B0E012C080E069
:100E1000E81680E0F80680E0080781E0180728F06F
:100E200088E190E0A0E0B0E004C080E190E0A0E0C4
:100E3000B0E020E230E040E050E0281B390B4A0BE4
:100E40005B0B04C016950795F794E7948A95D2F743
:100E5000F701E65DFE4F8081281B310941095109E8
:100E6000C9011F910F91FF90EF900895DF92EF92CB
:100E7000FF920F931F93FC01E480F5800681178198
:100E8000D1808081823048F480E090E0A0E1B0E041
:100E9000E82AF92A0A2B1B2BA5C0843009F49FC02D
:100EA000823021F4EE24FF24870105C0E114F1040F
:100EB0000105110519F4E0E0F0E096C0628173814C
:100EC0009FEF623879070CF05BC022E83FEF261BEA
:100ED000370B2A3131052CF020E030E040E050E0C3
:100EE0002AC0B801A701022E04C0769567955795D0
:100EF00047950A94D2F781E090E0A0E0B0E004C00A
:100F0000880F991FAA1FBB1F2A95D2F70197A10925
:100F1000B1098E219F21A023B1230097A105B1051E
:100F200021F081E090E0A0E0B0E09A01AB01282B35
:100F3000392B4A2B5B2BDA01C9018F779070A07097
:100F4000B07080349105A105B10539F427FF09C0BF
:100F5000205C3F4F4F4F5F4F04C0215C3F4F4F4FCE
:100F60005F4FE0E0F0E02030A0E03A07A0E04A0761
:100F7000A0E45A0710F0E1E0F0E079018A0127C00F
:100F80006038710564F5FB01E158FF4FD801C701D6
:100F90008F779070A070B07080349105A105B10575
:100FA00039F4E7FE0DC080E490E0A0E0B0E004C0BA
:100FB0008FE390E0A0E0B0E0E80EF91E0A1F1B1FCF
:100FC00017FF05C016950795F794E794319687E0CB
:100FD00016950795F794E7948A95D1F705C0EE2406
:100FE000FF248701EFEFF0E06E2F67956627679586
:100FF000902F9F77D794DD24D7948E2F8695492FF5
:10100000462B582F5D29B701CA011F910F91FF9000
:10101000EF90DF900895FC01DB0140815181228136
:10102000622F6F7770E0221F2227221F9381892F62
:10103000880F822B282F30E0991F9927991F11962E
:101040009C93119721153105A9F5411551056105AD
:10105000710511F482E037C082E89FEF13969C93EC
:101060008E9312979A01AB0167E0220F331F441F42
:10107000551F6A95D1F783E08C930DC0220F331F63
:10108000441F551F12968D919C91139701971396AB
:101090009C938E931297203080E0380780E04807B9
:1010A00080E4580758F314962D933D934D935C9329
:1010B000179708952F3F310579F4411551056105C2
:1010C000710519F484E08C93089564FF03C081E0F6
:1010D0008C9312C01C9210C02F57304013963C9333
:1010E0002E93129783E08C9387E0440F551F661F61
:1010F000771F8A95D1F7706414964D935D936D9325
:101100007C93179708951F93DC01FB019C9192300B
:1011100008F447C08081823008F443C0943051F411
:1011200011961C91843099F58181682F70E0611BC4
:1011300071093FC0843021F0923031F48230B9F12E
:101140008181882389F12DC011961C9111978230DD
:10115000F1F081811817D9F412962D913C911397D3
:10116000828193818217930794F028173907BCF086
:1011700014968D919D910D90BC91A02D2481358167
:1011800046815781281739074A075B0718F411234E
:1011900041F00AC082179307A407B50740F4112352
:1011A00019F061E070E005C06FEF7FEF02C060E012
:1011B00070E0CB011F9108952F923F924F925F9262
:1011C0006F927F928F929F92AF92BF92CF92DF9257
:1011D000EF92FF920F931F93CF93DF93CDB7DEB7BC
:1011E000CA1BDB0B0FB6F894DEBF0FBECDBF099450
:1011F0002A88398848885F846E847D848C849B84A7
:10120000AA84B984C884DF80EE80FD800C811B81B4
:10121000AA81B981CE0FD11D0FB6F894DEBF0FBEE3
:10122000CDBFED010895FB019F01E8944230C4F069
:101230004532B4F44A3029F497FB1EF49095819519
:101240009F4F642F77270E944409805D8A330CF0FA
:10125000895D8193CB010097A1F716F45DE251936C
:101260001082C9010C943409DC01FC01672F7191D3
:101270007723E1F7329704C07C916D93708362917C
:10128000AE17BF07C8F30895AA1BBB1B51E107C0E7
:10129000AA1FBB1FA617B70710F0A61BB70B881F06
:1012A000991F5A95A9F780959095BC01CD01089595
:0412B000F894FFCFE0
:1012B40044432543431001002052616E67653A2080
:1012C400000A00204F563A2000205469636B733A99
:1012D40020000000000000000000000102020303DF
:1012E40003030404040404040404050505050505B6
:1012F4000505050505050505050506060606060694
:101304000606060606060606060606060606060679
:101314000606060606060606060607070707070763
:101324000707070707070707070707070707070749
:101334000707070707070707070707070707070739
:101344000707070707070707070707070707070729
:101354000707070707070707070708080808080813
:1013640008080808080808080808080808080808F9
:1013740008080808080808080808080808080808E9
:1013840008080808080808080808080808080808D9
:1013940008080808080808080808080808080808C9
:1013A40008080808080808080808080808080808B9
:1013B40008080808080808080808080808080808A9
:1013C4000808080808080808080808080808080899
:0A13D40008080808080808080808BF
:00000001FF
